{
  "contractName": "Lands",
  "abi": [
    {
      "inputs": [],
      "payable": false,
      "stateMutability": "nonpayable",
      "type": "constructor"
    },
    {
      "constant": true,
      "inputs": [
        {
          "internalType": "uint256",
          "name": "",
          "type": "uint256"
        }
      ],
      "name": "lands",
      "outputs": [
        {
          "internalType": "address",
          "name": "owner",
          "type": "address"
        },
        {
          "internalType": "string",
          "name": "city",
          "type": "string"
        },
        {
          "internalType": "string",
          "name": "town",
          "type": "string"
        },
        {
          "internalType": "string",
          "name": "trough",
          "type": "string"
        },
        {
          "internalType": "string",
          "name": "part",
          "type": "string"
        },
        {
          "internalType": "string",
          "name": "contractHash",
          "type": "string"
        }
      ],
      "payable": false,
      "stateMutability": "view",
      "type": "function"
    },
    {
      "constant": true,
      "inputs": [
        {
          "internalType": "address",
          "name": "",
          "type": "address"
        }
      ],
      "name": "landsByAddress",
      "outputs": [
        {
          "internalType": "address",
          "name": "owner",
          "type": "address"
        },
        {
          "internalType": "string",
          "name": "city",
          "type": "string"
        },
        {
          "internalType": "string",
          "name": "town",
          "type": "string"
        },
        {
          "internalType": "string",
          "name": "trough",
          "type": "string"
        },
        {
          "internalType": "string",
          "name": "part",
          "type": "string"
        },
        {
          "internalType": "string",
          "name": "contractHash",
          "type": "string"
        }
      ],
      "payable": false,
      "stateMutability": "view",
      "type": "function"
    },
    {
      "constant": true,
      "inputs": [],
      "name": "landsCounter",
      "outputs": [
        {
          "internalType": "uint256",
          "name": "",
          "type": "uint256"
        }
      ],
      "payable": false,
      "stateMutability": "view",
      "type": "function"
    },
    {
      "constant": true,
      "inputs": [
        {
          "internalType": "uint256",
          "name": "",
          "type": "uint256"
        }
      ],
      "name": "landsOwners",
      "outputs": [
        {
          "internalType": "uint256",
          "name": "id",
          "type": "uint256"
        },
        {
          "internalType": "address",
          "name": "ownerAddress",
          "type": "address"
        },
        {
          "internalType": "string",
          "name": "fullName",
          "type": "string"
        }
      ],
      "payable": false,
      "stateMutability": "view",
      "type": "function"
    },
    {
      "constant": false,
      "inputs": [
        {
          "internalType": "address",
          "name": "_from",
          "type": "address"
        },
        {
          "internalType": "address",
          "name": "_to",
          "type": "address"
        }
      ],
      "name": "moveOwnerShip",
      "outputs": [],
      "payable": false,
      "stateMutability": "nonpayable",
      "type": "function"
    },
    {
      "constant": false,
      "inputs": [
        {
          "internalType": "address",
          "name": "_owner",
          "type": "address"
        },
        {
          "internalType": "string",
          "name": "_city",
          "type": "string"
        },
        {
          "internalType": "string",
          "name": "_town",
          "type": "string"
        },
        {
          "internalType": "string",
          "name": "_trough",
          "type": "string"
        },
        {
          "internalType": "string",
          "name": "_part",
          "type": "string"
        },
        {
          "internalType": "string",
          "name": "_contractHash",
          "type": "string"
        }
      ],
      "name": "registerLand",
      "outputs": [],
      "payable": false,
      "stateMutability": "nonpayable",
      "type": "function"
    },
    {
      "constant": true,
      "inputs": [
        {
          "internalType": "address",
          "name": "_owner",
          "type": "address"
        }
      ],
      "name": "getContractByAddress",
      "outputs": [
        {
          "internalType": "address",
          "name": "",
          "type": "address"
        },
        {
          "internalType": "string",
          "name": "",
          "type": "string"
        },
        {
          "internalType": "string",
          "name": "",
          "type": "string"
        },
        {
          "internalType": "string",
          "name": "",
          "type": "string"
        },
        {
          "internalType": "string",
          "name": "",
          "type": "string"
        },
        {
          "internalType": "string",
          "name": "",
          "type": "string"
        }
      ],
      "payable": false,
      "stateMutability": "view",
      "type": "function"
    }
  ],
  "bytecode": "0x60806040523480156200001157600080fd5b50600060038190555060405180606001604052806000815260200173ea3b0d98bd22fd7ee69d4b527b018988d89c723b73ffffffffffffffffffffffffffffffffffffffff1681526020016040518060400160405280600c81526020017f41686d61642053686161746800000000000000000000000000000000000000008152508152506000808081526020019081526020016000206000820151816000015560208201518160010160006101000a81548173ffffffffffffffffffffffffffffffffffffffff021916908373ffffffffffffffffffffffffffffffffffffffff16021790555060408201518160020190805190602001906200011692919062000423565b5090505060405180606001604052806001815260200173198d90c1f9c1f8952b3ba90e86d9ca2b22c1215f73ffffffffffffffffffffffffffffffffffffffff1681526020016040518060400160405280600d81526020017f416264756c204d6f6873656e2000000000000000000000000000000000000000815250815250600080600181526020019081526020016000206000820151816000015560208201518160010160006101000a81548173ffffffffffffffffffffffffffffffffffffffff021916908373ffffffffffffffffffffffffffffffffffffffff16021790555060408201518160020190805190602001906200021792919062000423565b5090505060405180606001604052806002815260200173c60d950464286720f0ea220304a93080b96a4a5973ffffffffffffffffffffffffffffffffffffffff1681526020016040518060400160405280601381526020017f4d616e61722041627520456c206b686169722000000000000000000000000000815250815250600080600281526020019081526020016000206000820151816000015560208201518160010160006101000a81548173ffffffffffffffffffffffffffffffffffffffff021916908373ffffffffffffffffffffffffffffffffffffffff16021790555060408201518160020190805190602001906200031892919062000423565b509050506040518060600160405280600381526020017335bebd9dcd066848b79365cec726772f12310e9173ffffffffffffffffffffffffffffffffffffffff1681526020016040518060400160405280601181526020017f526f6c6120416264656c20576168686162000000000000000000000000000000815250815250600080600381526020019081526020016000206000820151816000015560208201518160010160006101000a81548173ffffffffffffffffffffffffffffffffffffffff021916908373ffffffffffffffffffffffffffffffffffffffff16021790555060408201518160020190805190602001906200041992919062000423565b50905050620004d2565b828054600181600116156101000203166002900490600052602060002090601f016020900481019282601f106200046657805160ff191683800117855562000497565b8280016001018555821562000497579182015b828111156200049657825182559160200191906001019062000479565b5b509050620004a69190620004aa565b5090565b620004cf91905b80821115620004cb576000816000905550600101620004b1565b5090565b90565b61253180620004e26000396000f3fe608060405234801561001057600080fd5b506004361061007d5760003560e01c8063a383e24f1161005b578063a383e24f14610421578063a3d4551b14610485578063e261f1e514610725578063f1fcb292146109af5761007d565b806337e388201461008257806350e1eed11461016357806364b2959c14610181575b600080fd5b6100ae6004803603602081101561009857600080fd5b8101908080359060200190929190505050610ce6565b604051808481526020018373ffffffffffffffffffffffffffffffffffffffff1673ffffffffffffffffffffffffffffffffffffffff16815260200180602001828103825283818151815260200191508051906020019080838360005b8381101561012657808201518184015260208101905061010b565b50505050905090810190601f1680156101535780820380516001836020036101000a031916815260200191505b5094505050505060405180910390f35b61016b610dc8565b6040518082815260200191505060405180910390f35b6101c36004803603602081101561019757600080fd5b81019080803573ffffffffffffffffffffffffffffffffffffffff169060200190929190505050610dce565b604051808773ffffffffffffffffffffffffffffffffffffffff1673ffffffffffffffffffffffffffffffffffffffff168152602001806020018060200180602001806020018060200186810386528b818151815260200191508051906020019080838360005b8381101561024557808201518184015260208101905061022a565b50505050905090810190601f1680156102725780820380516001836020036101000a031916815260200191505b5086810385528a818151815260200191508051906020019080838360005b838110156102ab578082015181840152602081019050610290565b50505050905090810190601f1680156102d85780820380516001836020036101000a031916815260200191505b50868103845289818151815260200191508051906020019080838360005b838110156103115780820151818401526020810190506102f6565b50505050905090810190601f16801561033e5780820380516001836020036101000a031916815260200191505b50868103835288818151815260200191508051906020019080838360005b8381101561037757808201518184015260208101905061035c565b50505050905090810190601f1680156103a45780820380516001836020036101000a031916815260200191505b50868103825287818151815260200191508051906020019080838360005b838110156103dd5780820151818401526020810190506103c2565b50505050905090810190601f16801561040a5780820380516001836020036101000a031916815260200191505b509b50505050505050505050505060405180910390f35b6104836004803603604081101561043757600080fd5b81019080803573ffffffffffffffffffffffffffffffffffffffff169060200190929190803573ffffffffffffffffffffffffffffffffffffffff169060200190929190505050611122565b005b6104c76004803603602081101561049b57600080fd5b81019080803573ffffffffffffffffffffffffffffffffffffffff169060200190929190505050611955565b604051808773ffffffffffffffffffffffffffffffffffffffff1673ffffffffffffffffffffffffffffffffffffffff168152602001806020018060200180602001806020018060200186810386528b818151815260200191508051906020019080838360005b8381101561054957808201518184015260208101905061052e565b50505050905090810190601f1680156105765780820380516001836020036101000a031916815260200191505b5086810385528a818151815260200191508051906020019080838360005b838110156105af578082015181840152602081019050610594565b50505050905090810190601f1680156105dc5780820380516001836020036101000a031916815260200191505b50868103845289818151815260200191508051906020019080838360005b838110156106155780820151818401526020810190506105fa565b50505050905090810190601f1680156106425780820380516001836020036101000a031916815260200191505b50868103835288818151815260200191508051906020019080838360005b8381101561067b578082015181840152602081019050610660565b50505050905090810190601f1680156106a85780820380516001836020036101000a031916815260200191505b50868103825287818151815260200191508051906020019080838360005b838110156106e15780820151818401526020810190506106c6565b50505050905090810190601f16801561070e5780820380516001836020036101000a031916815260200191505b509b50505050505050505050505060405180910390f35b6107516004803603602081101561073b57600080fd5b8101908080359060200190929190505050611e2d565b604051808773ffffffffffffffffffffffffffffffffffffffff1673ffffffffffffffffffffffffffffffffffffffff168152602001806020018060200180602001806020018060200186810386528b818151815260200191508051906020019080838360005b838110156107d35780820151818401526020810190506107b8565b50505050905090810190601f1680156108005780820380516001836020036101000a031916815260200191505b5086810385528a818151815260200191508051906020019080838360005b8381101561083957808201518184015260208101905061081e565b50505050905090810190601f1680156108665780820380516001836020036101000a031916815260200191505b50868103845289818151815260200191508051906020019080838360005b8381101561089f578082015181840152602081019050610884565b50505050905090810190601f1680156108cc5780820380516001836020036101000a031916815260200191505b50868103835288818151815260200191508051906020019080838360005b838110156109055780820151818401526020810190506108ea565b50505050905090810190601f1680156109325780820380516001836020036101000a031916815260200191505b50868103825287818151815260200191508051906020019080838360005b8381101561096b578082015181840152602081019050610950565b50505050905090810190601f1680156109985780820380516001836020036101000a031916815260200191505b509b50505050505050505050505060405180910390f35b610ce4600480360360c08110156109c557600080fd5b81019080803573ffffffffffffffffffffffffffffffffffffffff16906020019092919080359060200190640100000000811115610a0257600080fd5b820183602082011115610a1457600080fd5b80359060200191846001830284011164010000000083111715610a3657600080fd5b91908080601f016020809104026020016040519081016040528093929190818152602001838380828437600081840152601f19601f82011690508083019250505050505050919291929080359060200190640100000000811115610a9957600080fd5b820183602082011115610aab57600080fd5b80359060200191846001830284011164010000000083111715610acd57600080fd5b91908080601f016020809104026020016040519081016040528093929190818152602001838380828437600081840152601f19601f82011690508083019250505050505050919291929080359060200190640100000000811115610b3057600080fd5b820183602082011115610b4257600080fd5b80359060200191846001830284011164010000000083111715610b6457600080fd5b91908080601f016020809104026020016040519081016040528093929190818152602001838380828437600081840152601f19601f82011690508083019250505050505050919291929080359060200190640100000000811115610bc757600080fd5b820183602082011115610bd957600080fd5b80359060200191846001830284011164010000000083111715610bfb57600080fd5b91908080601f016020809104026020016040519081016040528093929190818152602001838380828437600081840152601f19601f82011690508083019250505050505050919291929080359060200190640100000000811115610c5e57600080fd5b820183602082011115610c7057600080fd5b80359060200191846001830284011164010000000083111715610c9257600080fd5b91908080601f016020809104026020016040519081016040528093929190818152602001838380828437600081840152601f19601f820116905080830192505050505050509192919290505050612181565b005b60006020528060005260406000206000915090508060000154908060010160009054906101000a900473ffffffffffffffffffffffffffffffffffffffff1690806002018054600181600116156101000203166002900480601f016020809104026020016040519081016040528092919081815260200182805460018160011615610100020316600290048015610dbe5780601f10610d9357610100808354040283529160200191610dbe565b820191906000526020600020905b815481529060010190602001808311610da157829003601f168201915b5050505050905083565b60035481565b60016020528060005260406000206000915090508060000160009054906101000a900473ffffffffffffffffffffffffffffffffffffffff1690806001018054600181600116156101000203166002900480601f016020809104026020016040519081016040528092919081815260200182805460018160011615610100020316600290048015610ea05780601f10610e7557610100808354040283529160200191610ea0565b820191906000526020600020905b815481529060010190602001808311610e8357829003601f168201915b505050505090806002018054600181600116156101000203166002900480601f016020809104026020016040519081016040528092919081815260200182805460018160011615610100020316600290048015610f3e5780601f10610f1357610100808354040283529160200191610f3e565b820191906000526020600020905b815481529060010190602001808311610f2157829003601f168201915b505050505090806003018054600181600116156101000203166002900480601f016020809104026020016040519081016040528092919081815260200182805460018160011615610100020316600290048015610fdc5780601f10610fb157610100808354040283529160200191610fdc565b820191906000526020600020905b815481529060010190602001808311610fbf57829003601f168201915b505050505090806004018054600181600116156101000203166002900480601f01602080910402602001604051908101604052809291908181526020018280546001816001161561010002031660029004801561107a5780601f1061104f5761010080835404028352916020019161107a565b820191906000526020600020905b81548152906001019060200180831161105d57829003601f168201915b505050505090806005018054600181600116156101000203166002900480601f0160208091040260200160405190810160405280929190818152602001828054600181600116156101000203166002900480156111185780601f106110ed57610100808354040283529160200191611118565b820191906000526020600020905b8154815290600101906020018083116110fb57829003601f168201915b5050505050905086565b818073ffffffffffffffffffffffffffffffffffffffff16600160008373ffffffffffffffffffffffffffffffffffffffff1673ffffffffffffffffffffffffffffffffffffffff16815260200190815260200160002060000160009054906101000a900473ffffffffffffffffffffffffffffffffffffffff1673ffffffffffffffffffffffffffffffffffffffff1614611209576040517f08c379a000000000000000000000000000000000000000000000000000000000815260040180806020018281038252602c8152602001806124d1602c913960400191505060405180910390fd5b6040518060c001604052808373ffffffffffffffffffffffffffffffffffffffff168152602001600160008673ffffffffffffffffffffffffffffffffffffffff1673ffffffffffffffffffffffffffffffffffffffff1681526020019081526020016000206001018054600181600116156101000203166002900480601f0160208091040260200160405190810160405280929190818152602001828054600181600116156101000203166002900480156113065780601f106112db57610100808354040283529160200191611306565b820191906000526020600020905b8154815290600101906020018083116112e957829003601f168201915b50505050508152602001600160008673ffffffffffffffffffffffffffffffffffffffff1673ffffffffffffffffffffffffffffffffffffffff1681526020019081526020016000206002018054600181600116156101000203166002900480601f0160208091040260200160405190810160405280929190818152602001828054600181600116156101000203166002900480156113e65780601f106113bb576101008083540402835291602001916113e6565b820191906000526020600020905b8154815290600101906020018083116113c957829003601f168201915b50505050508152602001600160008673ffffffffffffffffffffffffffffffffffffffff1673ffffffffffffffffffffffffffffffffffffffff1681526020019081526020016000206003018054600181600116156101000203166002900480601f0160208091040260200160405190810160405280929190818152602001828054600181600116156101000203166002900480156114c65780601f1061149b576101008083540402835291602001916114c6565b820191906000526020600020905b8154815290600101906020018083116114a957829003601f168201915b50505050508152602001600160008673ffffffffffffffffffffffffffffffffffffffff1673ffffffffffffffffffffffffffffffffffffffff1681526020019081526020016000206004018054600181600116156101000203166002900480601f0160208091040260200160405190810160405280929190818152602001828054600181600116156101000203166002900480156115a65780601f1061157b576101008083540402835291602001916115a6565b820191906000526020600020905b81548152906001019060200180831161158957829003601f168201915b50505050508152602001600160008673ffffffffffffffffffffffffffffffffffffffff1673ffffffffffffffffffffffffffffffffffffffff1681526020019081526020016000206005018054600181600116156101000203166002900480601f0160208091040260200160405190810160405280929190818152602001828054600181600116156101000203166002900480156116865780601f1061165b57610100808354040283529160200191611686565b820191906000526020600020905b81548152906001019060200180831161166957829003601f168201915b5050505050815250600160008473ffffffffffffffffffffffffffffffffffffffff1673ffffffffffffffffffffffffffffffffffffffff16815260200190815260200160002060008201518160000160006101000a81548173ffffffffffffffffffffffffffffffffffffffff021916908373ffffffffffffffffffffffffffffffffffffffff160217905550602082015181600101908051906020019061173092919061242b565b50604082015181600201908051906020019061174d92919061242b565b50606082015181600301908051906020019061176a92919061242b565b50608082015181600401908051906020019061178792919061242b565b5060a08201518160050190805190602001906117a492919061242b565b509050506040518060c001604052808473ffffffffffffffffffffffffffffffffffffffff16815260200160405180602001604052806000815250815260200160405180602001604052806000815250815260200160405180602001604052806000815250815260200160405180602001604052806000815250815260200160405180602001604052806000815250815250600160008573ffffffffffffffffffffffffffffffffffffffff1673ffffffffffffffffffffffffffffffffffffffff16815260200190815260200160002060008201518160000160006101000a81548173ffffffffffffffffffffffffffffffffffffffff021916908373ffffffffffffffffffffffffffffffffffffffff16021790555060208201518160010190805190602001906118d892919061242b565b5060408201518160020190805190602001906118f592919061242b565b50606082015181600301908051906020019061191292919061242b565b50608082015181600401908051906020019061192f92919061242b565b5060a082015181600501908051906020019061194c92919061242b565b50905050505050565b60006060806060806060600160008873ffffffffffffffffffffffffffffffffffffffff1673ffffffffffffffffffffffffffffffffffffffff16815260200190815260200160002060000160009054906101000a900473ffffffffffffffffffffffffffffffffffffffff16600160008973ffffffffffffffffffffffffffffffffffffffff1673ffffffffffffffffffffffffffffffffffffffff168152602001908152602001600020600101600160008a73ffffffffffffffffffffffffffffffffffffffff1673ffffffffffffffffffffffffffffffffffffffff168152602001908152602001600020600201600160008b73ffffffffffffffffffffffffffffffffffffffff1673ffffffffffffffffffffffffffffffffffffffff168152602001908152602001600020600301600160008c73ffffffffffffffffffffffffffffffffffffffff1673ffffffffffffffffffffffffffffffffffffffff168152602001908152602001600020600401600160008d73ffffffffffffffffffffffffffffffffffffffff1673ffffffffffffffffffffffffffffffffffffffff168152602001908152602001600020600501848054600181600116156101000203166002900480601f016020809104026020016040519081016040528092919081815260200182805460018160011615610100020316600290048015611ba15780601f10611b7657610100808354040283529160200191611ba1565b820191906000526020600020905b815481529060010190602001808311611b8457829003601f168201915b50505050509450838054600181600116156101000203166002900480601f016020809104026020016040519081016040528092919081815260200182805460018160011615610100020316600290048015611c3d5780601f10611c1257610100808354040283529160200191611c3d565b820191906000526020600020905b815481529060010190602001808311611c2057829003601f168201915b50505050509350828054600181600116156101000203166002900480601f016020809104026020016040519081016040528092919081815260200182805460018160011615610100020316600290048015611cd95780601f10611cae57610100808354040283529160200191611cd9565b820191906000526020600020905b815481529060010190602001808311611cbc57829003601f168201915b50505050509250818054600181600116156101000203166002900480601f016020809104026020016040519081016040528092919081815260200182805460018160011615610100020316600290048015611d755780601f10611d4a57610100808354040283529160200191611d75565b820191906000526020600020905b815481529060010190602001808311611d5857829003601f168201915b50505050509150808054600181600116156101000203166002900480601f016020809104026020016040519081016040528092919081815260200182805460018160011615610100020316600290048015611e115780601f10611de657610100808354040283529160200191611e11565b820191906000526020600020905b815481529060010190602001808311611df457829003601f168201915b5050505050905095509550955095509550955091939550919395565b60026020528060005260406000206000915090508060000160009054906101000a900473ffffffffffffffffffffffffffffffffffffffff1690806001018054600181600116156101000203166002900480601f016020809104026020016040519081016040528092919081815260200182805460018160011615610100020316600290048015611eff5780601f10611ed457610100808354040283529160200191611eff565b820191906000526020600020905b815481529060010190602001808311611ee257829003601f168201915b505050505090806002018054600181600116156101000203166002900480601f016020809104026020016040519081016040528092919081815260200182805460018160011615610100020316600290048015611f9d5780601f10611f7257610100808354040283529160200191611f9d565b820191906000526020600020905b815481529060010190602001808311611f8057829003601f168201915b505050505090806003018054600181600116156101000203166002900480601f01602080910402602001604051908101604052809291908181526020018280546001816001161561010002031660029004801561203b5780601f106120105761010080835404028352916020019161203b565b820191906000526020600020905b81548152906001019060200180831161201e57829003601f168201915b505050505090806004018054600181600116156101000203166002900480601f0160208091040260200160405190810160405280929190818152602001828054600181600116156101000203166002900480156120d95780601f106120ae576101008083540402835291602001916120d9565b820191906000526020600020905b8154815290600101906020018083116120bc57829003601f168201915b505050505090806005018054600181600116156101000203166002900480601f0160208091040260200160405190810160405280929190818152602001828054600181600116156101000203166002900480156121775780601f1061214c57610100808354040283529160200191612177565b820191906000526020600020905b81548152906001019060200180831161215a57829003601f168201915b5050505050905086565b6003600081548092919060010191905055506040518060c001604052808773ffffffffffffffffffffffffffffffffffffffff1681526020018681526020018581526020018481526020018381526020018281525060026000600354815260200190815260200160002060008201518160000160006101000a81548173ffffffffffffffffffffffffffffffffffffffff021916908373ffffffffffffffffffffffffffffffffffffffff160217905550602082015181600101908051906020019061224e92919061242b565b50604082015181600201908051906020019061226b92919061242b565b50606082015181600301908051906020019061228892919061242b565b5060808201518160040190805190602001906122a592919061242b565b5060a08201518160050190805190602001906122c292919061242b565b509050506040518060c001604052808773ffffffffffffffffffffffffffffffffffffffff16815260200186815260200185815260200184815260200183815260200182815250600160008873ffffffffffffffffffffffffffffffffffffffff1673ffffffffffffffffffffffffffffffffffffffff16815260200190815260200160002060008201518160000160006101000a81548173ffffffffffffffffffffffffffffffffffffffff021916908373ffffffffffffffffffffffffffffffffffffffff16021790555060208201518160010190805190602001906123ab92919061242b565b5060408201518160020190805190602001906123c892919061242b565b5060608201518160030190805190602001906123e592919061242b565b50608082015181600401908051906020019061240292919061242b565b5060a082015181600501908051906020019061241f92919061242b565b50905050505050505050565b828054600181600116156101000203166002900490600052602060002090601f016020900481019282601f1061246c57805160ff191683800117855561249a565b8280016001018555821561249a579182015b8281111561249957825182559160200191906001019061247e565b5b5090506124a791906124ab565b5090565b6124cd91905b808211156124c95760008160009055506001016124b1565b5090565b9056fe5468652073656c6c6572206973206e6f7420746865207265616c206f776e6572206f6620746865206c616e64a265627a7a7231582020ac40093aa6dc3f9dbd3fefcca9bf87f0d395dd0ae06f984d70247f6da1ceaf64736f6c63430005100032",
  "source": "// SPDX-License-Identifier: MIT\npragma solidity >=0.4.21 <0.7.0;\n\ncontract Lands {\n    struct land {\n        address owner;\n        string city;\n        string town;\n        string trough;\n        string part;\n        string contractHash;\n    }\n    struct landOwner{\n\n        uint id; \n        address ownerAddress;\n        string fullName ;\n    }\n    mapping (uint=>landOwner) public landsOwners;\n    mapping(address => land) public landsByAddress;\n    mapping(uint256 => land) public lands;\n    uint256 public landsCounter;\n\n    modifier isLandOwner(address _owner) {\n        require(\n            landsByAddress[_owner].owner == _owner,\n            \"The seller is not the real owner of the land\"\n        );\n\n        _;\n    }\n    \n    constructor() public {\n        landsCounter = 0;\n        landsOwners[0]=landOwner(0,0xEA3b0d98bD22Fd7Ee69d4b527B018988D89c723B,\"Ahmad Shaath\");\n        landsOwners[1]=landOwner(1,0x198D90C1f9C1F8952B3BA90E86D9Ca2b22c1215f,\"Abdul Mohsen \");\n        landsOwners[2]=landOwner(2,0xC60D950464286720f0EA220304a93080b96a4A59,\"Manar Abu El khair \");\n        landsOwners[3]=landOwner(3,0x35bEBd9DCD066848B79365CEc726772F12310e91,\"Rola Abdel Wahhab\");\n    }\n\n  \n    function moveOwnerShip(address _from, address _to)  public isLandOwner(_from){\n        landsByAddress[_to] = land(\n            _to, //landsByAddress[_from].owner// _owner,\n            landsByAddress[_from].city,\n            landsByAddress[_from].town,\n            landsByAddress[_from].trough,\n            landsByAddress[_from].part,\n            landsByAddress[_from].contractHash\n        );\n        landsByAddress[_from]= land(_from,'','','','','');\n    }\n\n    function registerLand(\n        address _owner,\n        string memory _city,\n        string memory _town,\n        string memory _trough,\n        string memory _part,\n        string memory _contractHash\n    ) public {\n        landsCounter++;\n        lands[landsCounter] = land(\n            _owner,\n            _city,\n            _town,\n            _trough,\n            _part,\n            _contractHash\n        );\n        landsByAddress[_owner] = land(\n            _owner,\n            _city,\n            _town,\n            _trough,\n            _part,\n            _contractHash\n        );\n    }\n\n    function getContractByAddress(address _owner)\n        public\n        view\n        returns (\n            address,\n            string memory,\n            string memory,\n            string memory,\n            string memory,\n            string memory\n        )\n    {\n        return (\n            landsByAddress[_owner].owner,\n            landsByAddress[_owner].city,\n            landsByAddress[_owner].town,\n            landsByAddress[_owner].trough,\n            landsByAddress[_owner].part,\n            landsByAddress[_owner].contractHash\n        );\n    }\n}\n",
  "sourcePath": "/Users/macpro/Documents/usecases/LandRegistration/contracts/Lands.sol",
  "compiler": {
    "name": "solc",
    "version": "0.5.16+commit.9c3226ce.Emscripten.clang"
  },
  "schemaVersion": "3.3.2",
  "updatedAt": "2021-02-02T18:36:02.199Z",
  "networkType": "ethereum",
  "devdoc": {
    "methods": {}
  },
  "userdoc": {
    "methods": {}
  }
}